:100000000C9472000C947E000C947E000C947E0084
:100010000C947E000C947E000C947E000C947E0068
:100020000C947E000C947E000C947E000C947E0058
:100030000C947E000C947E000C947E000C947E0048
:100040000C947E000C947E000C947E000C947E0038
:100050000C947E000C947E000C947E000C947E0028
:100060000C947E000C947E000C947E000C947E0018
:100070000C947E000C947E000C947E000C947E0008
:100080000C947E000C947E000C947E000C947E00F8
:100090000C947E000C947E000C947E000C947E00E8
:1000A0000C947E000C947E000C947E000C947E00D8
:1000B0000C947E000C947E000C947E000C947E00C8
:1000C0000C947E000C947E000C947E000C947E00B8
:1000D0000C947E000C947E000C947E000C947E00A8
:1000E0000C947E0011241FBECFEFD1E2DEBFCDBF46
:1000F00000E00CBF0E9455010C946C010C940000B0
:10010000FC011082728361830895DC011196ED91E8
:10011000FC91129720812C930895DC011196ED91AA
:10012000FC9112978C9180830895FC0110828CE4DD
:1001300090E092838183F483E3830895FC0110822D
:100140008DE490E092838183F483E38308950F9399
:100150001F93CF93DF93EC010E949E008E010B5FF3
:100160001F4FC8010E94950081E08A871B86C80145
:100170000E948500888582608887C801DF91CF91C1
:100180001F910F910C948D000895CF93DF93EC0194
:100190000E94A7008885877F8887DF91CF91089587
:1001A000CF93DF93EC011C821B828B8180FD05C005
:1001B000CE010E9485000000F8CF8EB5DF91CF916F
:1001C0000895AF92BF92CF92DF92EF92FF920F937A
:1001D0001F93CF93DF935C01EB0169010E94A7009D
:1001E000F501808588608087C50105960E948D0095
:1001F000488181E090E09C01F801008002C0220F5C
:10020000331F0A94E2F7422B9C01F701008002C0E1
:10021000220F331F0A94E2F7242BF601008002C05C
:10022000880F991F0A94E2F7822B888388818F7E3A
:100230008883DF91CF911F910F91FF90EF90DF9016
:10024000CF90BF90AF900895CF93DF93FC01D90179
:100250009085EB01888180FB92F99087EA013881D3
:1002600033703295307F9F7C932B90878C91829551
:10027000880F880F807C9F73982B9087CF010596FD
:10028000DF91CF910C948D00CF93DF93EC01FB01B4
:1002900080818EBD8B8180FD05C0CE010E948500CE
:1002A0000000F8CFDF91CF910895279A2FEF83EDCB
:1002B00090E3215080409040E1F700C0000085B1FC
:1002C000805885B92FEF83ED90E321508040904016
:0C02D000E1F700C00000EACFF894FFCF77
:00000001FF
