:100000000C9475000C9499000C9499000C94990030
:100010000C9499000C9499000C9499000C949900FC
:100020000C9499000C9499000C9499000C949900EC
:100030000C9499000C9499000C9499000C949900DC
:100040000C9499000C9499000C9499000C949900CC
:100050000C9499000C9499000C9499000C949900BC
:100060000C9499000C9499000C9499000C949900AC
:100070000C9499000C9499000C9499000C9499009C
:100080000C9499000C9499000C9499000C9499008C
:100090000C9499000C9499000C9499000C9499007C
:1000A0000C9499000C9499000C9499000C9499006C
:1000B0000C9499000C9499000C9499000C9499005C
:1000C0000C9499000C9499000C9499000C9499004C
:1000D0000C9499000C9499000C9499000C9499003C
:1000E0000C9499000C941F021F0211241FBECFEF25
:1000F000D1E2DEBFCDBF00E00CBF22E0A0E0B2E065
:1001000001C01D92AA30B207E1F710E0C5E7D0E0C8
:1001100000E006C021970109802FFE010E94230202
:10012000C437D10780E00807A9F70E94E5010C94C5
:1001300026030C94000040E050E064E271E4FC010E
:1001400040835183628373831482158216821782DF
:100150000895CF93DF93EC01E885F985DB018C915D
:100160008083E885F98511968C9181839885969591
:10017000969596958985282F2295220F207E622FAD
:10018000692B869586958695782F7F7080E090E024
:100190000E942B029B01AC01688179818A819B813D
:1001A0000E9468026C837D838E839F83DF91CF9151
:1001B0000895FC01728361830895DC011196ED912D
:1001C000FC91129720812C930895DC011196ED91FA
:1001D000FC9112978C9180830895FC011082128209
:1001E0001182748363830895DC011396ED91FC9171
:1001F000149720812C930895DC011396ED91FC91C6
:1002000014978C9180830895FC011082748363831A
:100210000596928381830895FC01108212821182D7
:100220008CE490E094838383F683E5830895FC0156
:100230001082128211828DE490E094838383F6838E
:10024000E5830895CF93DF93EB01BA010E94D900B3
:100250008FEF8883DF91CF9108950895FB0130815E
:10026000FC01208130FB27F920830C94E5000F93DB
:100270001F93CF93DF93EC010E9417018E01095F5A
:100280001F4FC8010E940C0181E08E871F86C801A4
:100290000E94F4008C8582608C87C801DF91CF9129
:1002A0001F910F910C94FC000895CF93DF93EC0104
:1002B0000E9437018C85877F8C87DF91CF910895CD
:1002C000CF93DF93EC011E821D828D8180FD05C0DE
:1002D000CE010E94F4000000F8CF8EB5DF91CF91DF
:1002E0000895AF92BF92CF92DF92EF92FF920F9359
:1002F0001F93CF93DF935C01EB0169010E943701EB
:10030000F501848588608487C50107960E94FC00FA
:10031000488181E090E09C01F801008002C0220F3A
:10032000331F0A94E2F7422B9C01F701008002C0C0
:10033000220F331F0A94E2F7242BF601008002C03B
:10034000880F991F0A94E2F7822B888388818F7E19
:100350008883DF91CF911F910F91FF90EF90DF90F5
:10036000CF90BF90AF900895CF93DF93FC01D90158
:100370009485EB01888180FB92F99487EA013881AA
:1003800033703295307F9F7C932B94878C9182952C
:10039000880F880F807C9F73982B9487CF010796D6
:1003A000DF91CF910C94FC00CF93DF93EC01FB0124
:1003B00080818EBD8D8180FD05C0CE010E94F4003C
:1003C0000000F8CFDF91CF910895CF93DF9300D055
:1003D0001F921F92CDB7DEB7BE016B5F7F4F80E0EB
:1003E00092E00E94A90045E250E064E270E0CE0194
:1003F00001960E94220111E01C83BE016C5F7F4FB9
:10040000CE0101960E942E012FEF83ED90E3215043
:1004100080409040E1F700C000001C82BE016C5F8C
:100420007F4FCE0101960E942E012FEF83ED90E3C6
:10043000215080409040E1F700C00000DDCF80E017
:1004400092E00C949B00EE0FFF1F881F8BBF07905C
:10045000F691E02D1994E89409C097FB3EF490952D
:100460008095709561957F4F8F4F9F4F9923A9F08D
:10047000F92F96E9BB279395F6958795779567951C
:10048000B795F111F8CFFAF4BB0F11F460FF1BC060
:100490006F5F7F4F8F4F9F4F16C0882311F096E9F3
:1004A00011C0772321F09EE8872F762F05C06623A1
:1004B00071F096E8862F70E060E02AF09A95660F5A
:1004C000771F881FDAF7880F9695879597F9089513
:1004D0000E947B020C94EC020E94DE0238F00E9423
:1004E000E50220F0952311F00C94D5020C94DB0268
:1004F00011240C9420030E94FD0270F3959FC1F318
:10050000950F50E0551F629FF001729FBB27F00DC1
:10051000B11D639FAA27F00DB11DAA1F649F662716
:10052000B00DA11D661F829F2227B00DA11D621F65
:10053000739FB00DA11D621F839FA00D611D221F1F
:10054000749F3327A00D611D231F849F600D211D03
:10055000822F762F6A2F11249F5750409AF0F1F086
:1005600088234AF0EE0FFF1FBB1F661F771F881FEF
:1005700091505040A9F79E3F510580F00C94D50250
:100580000C9420035F3FE4F3983ED4F3869577956F
:100590006795B795F795E7959F5FC1F7FE2B880F95
:1005A000911D9695879597F9089597F99F6780E82B
:1005B00070E060E008959FEF80EC089500240A94B5
:1005C0001616170618060906089500240A9412162E
:1005D0001306140605060895092E0394000C11F461
:1005E000882352F0BB0F40F4BF2B11F460FF04C00E
:1005F0006F5F7F4F8F4F9F4F089557FD9058440F67
:10060000551F59F05F3F71F04795880F97FB991F71
:1006100061F09F3F79F0879508951216130614062E
:10062000551FF2CF4695F1DF08C0161617061806BB
:10063000991FF1CF86957105610508940895E89496
:10064000BB2766277727CB0197F90895F894FFCF4A
:00000001FF
